{
  "_format": "hh-sol-artifact-1",
  "contractName": "TokenContract",
  "sourceName": "contracts/TokenContract.sol",
  "abi": [
    {
      "inputs": [],
      "stateMutability": "nonpayable",
      "type": "constructor"
    },
    {
      "inputs": [
        {
          "internalType": "address",
          "name": "spender",
          "type": "address"
        },
        {
          "internalType": "uint256",
          "name": "allowance",
          "type": "uint256"
        },
        {
          "internalType": "uint256",
          "name": "needed",
          "type": "uint256"
        }
      ],
      "name": "ERC20InsufficientAllowance",
      "type": "error"
    },
    {
      "inputs": [
        {
          "internalType": "address",
          "name": "sender",
          "type": "address"
        },
        {
          "internalType": "uint256",
          "name": "balance",
          "type": "uint256"
        },
        {
          "internalType": "uint256",
          "name": "needed",
          "type": "uint256"
        }
      ],
      "name": "ERC20InsufficientBalance",
      "type": "error"
    },
    {
      "inputs": [
        {
          "internalType": "address",
          "name": "approver",
          "type": "address"
        }
      ],
      "name": "ERC20InvalidApprover",
      "type": "error"
    },
    {
      "inputs": [
        {
          "internalType": "address",
          "name": "receiver",
          "type": "address"
        }
      ],
      "name": "ERC20InvalidReceiver",
      "type": "error"
    },
    {
      "inputs": [
        {
          "internalType": "address",
          "name": "sender",
          "type": "address"
        }
      ],
      "name": "ERC20InvalidSender",
      "type": "error"
    },
    {
      "inputs": [
        {
          "internalType": "address",
          "name": "spender",
          "type": "address"
        }
      ],
      "name": "ERC20InvalidSpender",
      "type": "error"
    },
    {
      "anonymous": false,
      "inputs": [
        {
          "indexed": true,
          "internalType": "address",
          "name": "owner",
          "type": "address"
        },
        {
          "indexed": true,
          "internalType": "address",
          "name": "spender",
          "type": "address"
        },
        {
          "indexed": false,
          "internalType": "uint256",
          "name": "value",
          "type": "uint256"
        }
      ],
      "name": "Approval",
      "type": "event"
    },
    {
      "anonymous": false,
      "inputs": [
        {
          "indexed": true,
          "internalType": "address",
          "name": "from",
          "type": "address"
        },
        {
          "indexed": true,
          "internalType": "address",
          "name": "to",
          "type": "address"
        },
        {
          "indexed": false,
          "internalType": "uint256",
          "name": "value",
          "type": "uint256"
        }
      ],
      "name": "Transfer",
      "type": "event"
    },
    {
      "inputs": [
        {
          "internalType": "address",
          "name": "owner",
          "type": "address"
        },
        {
          "internalType": "address",
          "name": "spender",
          "type": "address"
        }
      ],
      "name": "allowance",
      "outputs": [
        {
          "internalType": "uint256",
          "name": "",
          "type": "uint256"
        }
      ],
      "stateMutability": "view",
      "type": "function"
    },
    {
      "inputs": [
        {
          "internalType": "address",
          "name": "spender",
          "type": "address"
        },
        {
          "internalType": "uint256",
          "name": "value",
          "type": "uint256"
        }
      ],
      "name": "approve",
      "outputs": [
        {
          "internalType": "bool",
          "name": "",
          "type": "bool"
        }
      ],
      "stateMutability": "nonpayable",
      "type": "function"
    },
    {
      "inputs": [
        {
          "internalType": "address",
          "name": "account",
          "type": "address"
        }
      ],
      "name": "balanceOf",
      "outputs": [
        {
          "internalType": "uint256",
          "name": "",
          "type": "uint256"
        }
      ],
      "stateMutability": "view",
      "type": "function"
    },
    {
      "inputs": [
        {
          "internalType": "uint256",
          "name": "tokenAmount",
          "type": "uint256"
        }
      ],
      "name": "burnTokens",
      "outputs": [],
      "stateMutability": "nonpayable",
      "type": "function"
    },
    {
      "inputs": [],
      "name": "decimals",
      "outputs": [
        {
          "internalType": "uint8",
          "name": "",
          "type": "uint8"
        }
      ],
      "stateMutability": "view",
      "type": "function"
    },
    {
      "inputs": [],
      "name": "name",
      "outputs": [
        {
          "internalType": "string",
          "name": "",
          "type": "string"
        }
      ],
      "stateMutability": "view",
      "type": "function"
    },
    {
      "inputs": [],
      "name": "symbol",
      "outputs": [
        {
          "internalType": "string",
          "name": "",
          "type": "string"
        }
      ],
      "stateMutability": "view",
      "type": "function"
    },
    {
      "inputs": [],
      "name": "totalSupply",
      "outputs": [
        {
          "internalType": "uint256",
          "name": "",
          "type": "uint256"
        }
      ],
      "stateMutability": "view",
      "type": "function"
    },
    {
      "inputs": [
        {
          "internalType": "address",
          "name": "to",
          "type": "address"
        },
        {
          "internalType": "uint256",
          "name": "value",
          "type": "uint256"
        }
      ],
      "name": "transfer",
      "outputs": [
        {
          "internalType": "bool",
          "name": "",
          "type": "bool"
        }
      ],
      "stateMutability": "nonpayable",
      "type": "function"
    },
    {
      "inputs": [
        {
          "internalType": "address",
          "name": "from",
          "type": "address"
        },
        {
          "internalType": "address",
          "name": "to",
          "type": "address"
        },
        {
          "internalType": "uint256",
          "name": "value",
          "type": "uint256"
        }
      ],
      "name": "transferFrom",
      "outputs": [
        {
          "internalType": "bool",
          "name": "",
          "type": "bool"
        }
      ],
      "stateMutability": "nonpayable",
      "type": "function"
    }
  ],
  "bytecode": "0x60806040523480156200001157600080fd5b5060405180604001604052806009815260200168546f6b656e4e616d6560b81b815250604051806040016040528060098152602001681512d394d6535093d360ba1b8152508160039081620000679190620002b5565b506004620000768282620002b5565b505050620000953369d3c21bcecceda10000006200009b60201b60201c565b620003a9565b6001600160a01b038216620000cb5760405163ec442f0560e01b8152600060048201526024015b60405180910390fd5b620000d960008383620000dd565b5050565b6001600160a01b0383166200010c57806002600082825462000100919062000381565b90915550620001809050565b6001600160a01b03831660009081526020819052604090205481811015620001615760405163391434e360e21b81526001600160a01b03851660048201526024810182905260448101839052606401620000c2565b6001600160a01b03841660009081526020819052604090209082900390555b6001600160a01b0382166200019e57600280548290039055620001bd565b6001600160a01b03821660009081526020819052604090208054820190555b816001600160a01b0316836001600160a01b03167fddf252ad1be2c89b69c2b068fc378daa952ba7f163c4a11628f55a4df523b3ef836040516200020391815260200190565b60405180910390a3505050565b634e487b7160e01b600052604160045260246000fd5b600181811c908216806200023b57607f821691505b6020821081036200025c57634e487b7160e01b600052602260045260246000fd5b50919050565b601f821115620002b057600081815260208120601f850160051c810160208610156200028b5750805b601f850160051c820191505b81811015620002ac5782815560010162000297565b5050505b505050565b81516001600160401b03811115620002d157620002d162000210565b620002e981620002e2845462000226565b8462000262565b602080601f831160018114620003215760008415620003085750858301515b600019600386901b1c1916600185901b178555620002ac565b600085815260208120601f198616915b82811015620003525788860151825594840194600190910190840162000331565b5085821015620003715787850151600019600388901b60f8161c191681555b5050505050600190811b01905550565b80820180821115620003a357634e487b7160e01b600052601160045260246000fd5b92915050565b6107a080620003b96000396000f3fe608060405234801561001057600080fd5b506004361061009e5760003560e01c80636d1b229d116100665780636d1b229d1461011857806370a082311461012d57806395d89b4114610156578063a9059cbb1461015e578063dd62ed3e1461017157600080fd5b806306fdde03146100a3578063095ea7b3146100c157806318160ddd146100e457806323b872dd146100f6578063313ce56714610109575b600080fd5b6100ab6101aa565b6040516100b891906105d1565b60405180910390f35b6100d46100cf36600461063b565b61023c565b60405190151581526020016100b8565b6002545b6040519081526020016100b8565b6100d4610104366004610665565b610256565b604051601281526020016100b8565b61012b6101263660046106a1565b61027a565b005b6100e861013b3660046106ba565b6001600160a01b031660009081526020819052604090205490565b6100ab610287565b6100d461016c36600461063b565b610296565b6100e861017f3660046106dc565b6001600160a01b03918216600090815260016020908152604080832093909416825291909152205490565b6060600380546101b99061070f565b80601f01602080910402602001604051908101604052809291908181526020018280546101e59061070f565b80156102325780601f1061020757610100808354040283529160200191610232565b820191906000526020600020905b81548152906001019060200180831161021557829003601f168201915b5050505050905090565b60003361024a8185856102a4565b60019150505b92915050565b6000336102648582856102b6565b61026f858585610339565b506001949350505050565b6102843382610398565b50565b6060600480546101b99061070f565b60003361024a818585610339565b6102b183838360016103d2565b505050565b6001600160a01b038381166000908152600160209081526040808320938616835292905220546000198114610333578181101561032457604051637dc7a0d960e11b81526001600160a01b038416600482015260248101829052604481018390526064015b60405180910390fd5b610333848484840360006103d2565b50505050565b6001600160a01b03831661036357604051634b637e8f60e11b81526000600482015260240161031b565b6001600160a01b03821661038d5760405163ec442f0560e01b81526000600482015260240161031b565b6102b18383836104a7565b6001600160a01b0382166103c257604051634b637e8f60e11b81526000600482015260240161031b565b6103ce826000836104a7565b5050565b6001600160a01b0384166103fc5760405163e602df0560e01b81526000600482015260240161031b565b6001600160a01b03831661042657604051634a1406b160e11b81526000600482015260240161031b565b6001600160a01b038085166000908152600160209081526040808320938716835292905220829055801561033357826001600160a01b0316846001600160a01b03167f8c5be1e5ebec7d5bd14f71427d1e84f3dd0314c0f7b2291e5b200ac8c7c3b9258460405161049991815260200190565b60405180910390a350505050565b6001600160a01b0383166104d25780600260008282546104c79190610749565b909155506105449050565b6001600160a01b038316600090815260208190526040902054818110156105255760405163391434e360e21b81526001600160a01b0385166004820152602481018290526044810183905260640161031b565b6001600160a01b03841660009081526020819052604090209082900390555b6001600160a01b0382166105605760028054829003905561057f565b6001600160a01b03821660009081526020819052604090208054820190555b816001600160a01b0316836001600160a01b03167fddf252ad1be2c89b69c2b068fc378daa952ba7f163c4a11628f55a4df523b3ef836040516105c491815260200190565b60405180910390a3505050565b600060208083528351808285015260005b818110156105fe578581018301518582016040015282016105e2565b506000604082860101526040601f19601f8301168501019250505092915050565b80356001600160a01b038116811461063657600080fd5b919050565b6000806040838503121561064e57600080fd5b6106578361061f565b946020939093013593505050565b60008060006060848603121561067a57600080fd5b6106838461061f565b92506106916020850161061f565b9150604084013590509250925092565b6000602082840312156106b357600080fd5b5035919050565b6000602082840312156106cc57600080fd5b6106d58261061f565b9392505050565b600080604083850312156106ef57600080fd5b6106f88361061f565b91506107066020840161061f565b90509250929050565b600181811c9082168061072357607f821691505b60208210810361074357634e487b7160e01b600052602260045260246000fd5b50919050565b8082018082111561025057634e487b7160e01b600052601160045260246000fdfea26469706673582212203b72c6e753c7d4c71e7fc9a2cb35ab2452ed4b99704f3c49721d791aeb29594564736f6c63430008140033",
  "linkReferences": {},
  "deployedLinkReferences": {}
}